{
  "_format": "hh-sol-artifact-1",
  "contractName": "liquidityPool",
  "sourceName": "contracts/liquidityPool.sol",
  "abi": [
    {
      "inputs": [],
      "name": "MinimumLiquidity",
      "outputs": [
        {
          "internalType": "uint256",
          "name": "",
          "type": "uint256"
        }
      ],
      "stateMutability": "view",
      "type": "function"
    },
    {
      "inputs": [],
      "name": "_tokenAddress",
      "outputs": [
        {
          "internalType": "string",
          "name": "",
          "type": "string"
        }
      ],
      "stateMutability": "view",
      "type": "function"
    },
    {
      "inputs": [
        {
          "internalType": "uint256",
          "name": "amountTok1",
          "type": "uint256"
        },
        {
          "internalType": "uint256",
          "name": "amountTok2",
          "type": "uint256"
        }
      ],
      "name": "addLiquidity",
      "outputs": [],
      "stateMutability": "nonpayable",
      "type": "function"
    },
    {
      "inputs": [
        {
          "internalType": "uint256",
          "name": "liquidity",
          "type": "uint256"
        }
      ],
      "name": "burn",
      "outputs": [
        {
          "internalType": "uint256",
          "name": "amount1",
          "type": "uint256"
        },
        {
          "internalType": "uint256",
          "name": "amount2",
          "type": "uint256"
        }
      ],
      "stateMutability": "nonpayable",
      "type": "function"
    },
    {
      "inputs": [],
      "name": "getReserves",
      "outputs": [
        {
          "internalType": "uint256",
          "name": "_reserve1",
          "type": "uint256"
        },
        {
          "internalType": "uint256",
          "name": "_reserve2",
          "type": "uint256"
        }
      ],
      "stateMutability": "nonpayable",
      "type": "function"
    },
    {
      "inputs": [
        {
          "internalType": "address",
          "name": "to",
          "type": "address"
        }
      ],
      "name": "mintLPtoken",
      "outputs": [
        {
          "internalType": "uint256",
          "name": "liquidity",
          "type": "uint256"
        }
      ],
      "stateMutability": "nonpayable",
      "type": "function"
    },
    {
      "inputs": [
        {
          "internalType": "uint256",
          "name": "amount1",
          "type": "uint256"
        },
        {
          "internalType": "uint256",
          "name": "_reserve1",
          "type": "uint256"
        },
        {
          "internalType": "uint256",
          "name": "_reserve2",
          "type": "uint256"
        }
      ],
      "name": "quote",
      "outputs": [
        {
          "internalType": "uint256",
          "name": "",
          "type": "uint256"
        }
      ],
      "stateMutability": "nonpayable",
      "type": "function"
    },
    {
      "inputs": [
        {
          "internalType": "uint256",
          "name": "liquidity",
          "type": "uint256"
        },
        {
          "internalType": "address",
          "name": "to",
          "type": "address"
        }
      ],
      "name": "removeLiquidity",
      "outputs": [],
      "stateMutability": "nonpayable",
      "type": "function"
    },
    {
      "inputs": [],
      "name": "reserve1",
      "outputs": [
        {
          "internalType": "uint256",
          "name": "",
          "type": "uint256"
        }
      ],
      "stateMutability": "view",
      "type": "function"
    },
    {
      "inputs": [],
      "name": "reserve2",
      "outputs": [
        {
          "internalType": "uint256",
          "name": "",
          "type": "uint256"
        }
      ],
      "stateMutability": "view",
      "type": "function"
    },
    {
      "inputs": [
        {
          "internalType": "address",
          "name": "_token1",
          "type": "address"
        },
        {
          "internalType": "address",
          "name": "_token2",
          "type": "address"
        }
      ],
      "name": "setAddress",
      "outputs": [],
      "stateMutability": "nonpayable",
      "type": "function"
    },
    {
      "inputs": [
        {
          "internalType": "uint256",
          "name": "token1quan",
          "type": "uint256"
        },
        {
          "internalType": "uint256",
          "name": "token2quan",
          "type": "uint256"
        }
      ],
      "name": "shouldAddLiquidity",
      "outputs": [
        {
          "internalType": "uint256",
          "name": "amount1",
          "type": "uint256"
        },
        {
          "internalType": "uint256",
          "name": "amount2",
          "type": "uint256"
        }
      ],
      "stateMutability": "nonpayable",
      "type": "function"
    },
    {
      "inputs": [],
      "name": "token1",
      "outputs": [
        {
          "internalType": "contract IERC20",
          "name": "",
          "type": "address"
        }
      ],
      "stateMutability": "view",
      "type": "function"
    },
    {
      "inputs": [],
      "name": "token2",
      "outputs": [
        {
          "internalType": "contract IERC20",
          "name": "",
          "type": "address"
        }
      ],
      "stateMutability": "view",
      "type": "function"
    },
    {
      "inputs": [],
      "name": "totalLiquidity",
      "outputs": [
        {
          "internalType": "uint256",
          "name": "",
          "type": "uint256"
        }
      ],
      "stateMutability": "view",
      "type": "function"
    },
    {
      "inputs": [
        {
          "internalType": "address",
          "name": "",
          "type": "address"
        }
      ],
      "name": "userLiquidity",
      "outputs": [
        {
          "internalType": "uint256",
          "name": "",
          "type": "uint256"
        }
      ],
      "stateMutability": "view",
      "type": "function"
    }
  ],
  "bytecode": "0x60806040526040518060600160405280602a8152602001620019df602a9139600090816200002e9190620002bd565b503480156200003c57600080fd5b50620003a4565b600081519050919050565b7f4e487b7100000000000000000000000000000000000000000000000000000000600052604160045260246000fd5b7f4e487b7100000000000000000000000000000000000000000000000000000000600052602260045260246000fd5b60006002820490506001821680620000c557607f821691505b602082108103620000db57620000da6200007d565b5b50919050565b60008190508160005260206000209050919050565b60006020601f8301049050919050565b600082821b905092915050565b600060088302620001457fffffffffffffffffffffffffffffffffffffffffffffffffffffffffffffffff8262000106565b62000151868362000106565b95508019841693508086168417925050509392505050565b6000819050919050565b6000819050919050565b60006200019e62000198620001928462000169565b62000173565b62000169565b9050919050565b6000819050919050565b620001ba836200017d565b620001d2620001c982620001a5565b84845462000113565b825550505050565b600090565b620001e9620001da565b620001f6818484620001af565b505050565b5b818110156200021e5762000212600082620001df565b600181019050620001fc565b5050565b601f8211156200026d576200023781620000e1565b6200024284620000f6565b8101602085101562000252578190505b6200026a6200026185620000f6565b830182620001fb565b50505b505050565b600082821c905092915050565b6000620002926000198460080262000272565b1980831691505092915050565b6000620002ad83836200027f565b9150826002028217905092915050565b620002c88262000043565b67ffffffffffffffff811115620002e457620002e36200004e565b5b620002f08254620000ac565b620002fd82828562000222565b600060209050601f83116001811462000335576000841562000320578287015190505b6200032c85826200029f565b8655506200039c565b601f1984166200034586620000e1565b60005b828110156200036f5784890151825560018201915060208501945060208101905062000348565b868310156200038f57848901516200038b601f8916826200027f565b8355505b6001600288020188555050505b505050505050565b61162b80620003b46000396000f3fe608060405234801561001057600080fd5b50600436106101005760003560e01c806357349816116100975780639cd441da116100665780639cd441da146102a2578063ad615dec146102be578063ba4c28c3146102ee578063d21220a71461031e57610100565b806357349816146102185780635a76f25e146102485780635c0b9a2b146102665780638ba2b2591461028457610100565b806325be124e116100d357806325be124e1461018f5780633b58524d146101ad57806342966c68146101c9578063543fcf03146101fa57610100565b806305fe138b1461010557806308efc72a146101215780630902f1ac1461015257806315770f9214610171575b600080fd5b61011f600480360381019061011a919061103f565b61033c565b005b61013b6004803603810190610136919061107f565b610647565b6040516101499291906110ce565b60405180910390f35b61015a6106c8565b6040516101689291906110ce565b60405180910390f35b6101796106d9565b60405161018691906110f7565b60405180910390f35b6101976106df565b6040516101a49190611171565b60405180910390f35b6101c760048036038101906101c2919061118c565b610705565b005b6101e360048036038101906101de91906111cc565b61078b565b6040516101f19291906110ce565b60405180910390f35b61020261090f565b60405161020f9190611289565b60405180910390f35b610232600480360381019061022d91906112ab565b61099d565b60405161023f91906110f7565b60405180910390f35b610250610d41565b60405161025d91906110f7565b60405180910390f35b61026e610d47565b60405161027b91906110f7565b60405180910390f35b61028c610d4d565b60405161029991906110f7565b60405180910390f35b6102bc60048036038101906102b7919061107f565b610d53565b005b6102d860048036038101906102d391906112d8565b610eb0565b6040516102e591906110f7565b60405180910390f35b610308600480360381019061030391906112ab565b610ed7565b60405161031591906110f7565b60405180910390f35b610326610eef565b6040516103339190611171565b60405180910390f35b6000806103488461078b565b91509150600360009054906101000a900473ffffffffffffffffffffffffffffffffffffffff1673ffffffffffffffffffffffffffffffffffffffff1663a9059cbb84846040518363ffffffff1660e01b81526004016103a992919061133a565b6020604051808303816000875af11580156103c8573d6000803e3d6000fd5b505050506040513d601f19601f820116820180604052508101906103ec919061139b565b50600460009054906101000a900473ffffffffffffffffffffffffffffffffffffffff1673ffffffffffffffffffffffffffffffffffffffff1663a9059cbb84836040518363ffffffff1660e01b815260040161044a92919061133a565b6020604051808303816000875af1158015610469573d6000803e3d6000fd5b505050506040513d601f19601f8201168201806040525081019061048d919061139b565b5083600560008282546104a091906113f7565b9250508190555083600660008573ffffffffffffffffffffffffffffffffffffffff1673ffffffffffffffffffffffffffffffffffffffff16815260200190815260200160002060008282546104f691906113f7565b92505081905550600360009054906101000a900473ffffffffffffffffffffffffffffffffffffffff1673ffffffffffffffffffffffffffffffffffffffff166370a08231306040518263ffffffff1660e01b8152600401610558919061142b565b602060405180830381865afa158015610575573d6000803e3d6000fd5b505050506040513d601f19601f82011682018060405250810190610599919061145b565b600181905550600460009054906101000a900473ffffffffffffffffffffffffffffffffffffffff1673ffffffffffffffffffffffffffffffffffffffff166370a08231306040518263ffffffff1660e01b81526004016105fa919061142b565b602060405180830381865afa158015610617573d6000803e3d6000fd5b505050506040513d601f19601f8201168201806040525081019061063b919061145b565b60028190555050505050565b6000806000806106556106c8565b915091506000821480156106695750600081145b1561067d57858580945081955050506106bf565b600061068a878484610eb0565b90508581116106a257868180955081965050506106bd565b60006106af878486610eb0565b905080878096508197505050505b505b50509250929050565b600080600154915060025490509091565b60055481565b600460009054906101000a900473ffffffffffffffffffffffffffffffffffffffff1681565b81600360006101000a81548173ffffffffffffffffffffffffffffffffffffffff021916908373ffffffffffffffffffffffffffffffffffffffff16021790555080600460006101000a81548173ffffffffffffffffffffffffffffffffffffffff021916908373ffffffffffffffffffffffffffffffffffffffff1602179055505050565b6000806000600360009054906101000a900473ffffffffffffffffffffffffffffffffffffffff1673ffffffffffffffffffffffffffffffffffffffff166370a08231306040518263ffffffff1660e01b81526004016107eb919061142b565b602060405180830381865afa158015610808573d6000803e3d6000fd5b505050506040513d601f19601f8201168201806040525081019061082c919061145b565b90506000600460009054906101000a900473ffffffffffffffffffffffffffffffffffffffff1673ffffffffffffffffffffffffffffffffffffffff166370a08231306040518263ffffffff1660e01b815260040161088b919061142b565b602060405180830381865afa1580156108a8573d6000803e3d6000fd5b505050506040513d601f19601f820116820180604052508101906108cc919061145b565b9050600060055490508083876108e29190611488565b6108ec91906114f9565b94508082876108fb9190611488565b61090591906114f9565b9350505050915091565b6000805461091c90611559565b80601f016020809104026020016040519081016040528092919081815260200182805461094890611559565b80156109955780601f1061096a57610100808354040283529160200191610995565b820191906000526020600020905b81548152906001019060200180831161097857829003601f168201915b505050505081565b60008060006109aa6106c8565b915091506000600360009054906101000a900473ffffffffffffffffffffffffffffffffffffffff1673ffffffffffffffffffffffffffffffffffffffff166370a08231306040518263ffffffff1660e01b8152600401610a0b919061142b565b602060405180830381865afa158015610a28573d6000803e3d6000fd5b505050506040513d601f19601f82011682018060405250810190610a4c919061145b565b90506000600460009054906101000a900473ffffffffffffffffffffffffffffffffffffffff1673ffffffffffffffffffffffffffffffffffffffff166370a08231306040518263ffffffff1660e01b8152600401610aab919061142b565b602060405180830381865afa158015610ac8573d6000803e3d6000fd5b505050506040513d601f19601f82011682018060405250810190610aec919061145b565b905060008483610afc91906113f7565b905060008483610b0c91906113f7565b90506000600554905060008103610b45576103e8610b348385610b2f9190611488565b610f15565b610b3e91906113f7565b9750610b82565b610b7f6001548285610b579190611488565b610b6191906114f9565b6002548385610b709190611488565b610b7a91906114f9565b610f8a565b97505b87600660008b73ffffffffffffffffffffffffffffffffffffffff1673ffffffffffffffffffffffffffffffffffffffff1681526020019081526020016000206000828254610bd1919061158a565b925050819055508760056000828254610bea919061158a565b92505081905550600360009054906101000a900473ffffffffffffffffffffffffffffffffffffffff1673ffffffffffffffffffffffffffffffffffffffff166370a08231306040518263ffffffff1660e01b8152600401610c4c919061142b565b602060405180830381865afa158015610c69573d6000803e3d6000fd5b505050506040513d601f19601f82011682018060405250810190610c8d919061145b565b600181905550600460009054906101000a900473ffffffffffffffffffffffffffffffffffffffff1673ffffffffffffffffffffffffffffffffffffffff166370a08231306040518263ffffffff1660e01b8152600401610cee919061142b565b602060405180830381865afa158015610d0b573d6000803e3d6000fd5b505050506040513d601f19601f82011682018060405250810190610d2f919061145b565b60028190555050505050505050919050565b60015481565b60025481565b6103e881565b600080610d608484610647565b91509150600360009054906101000a900473ffffffffffffffffffffffffffffffffffffffff1673ffffffffffffffffffffffffffffffffffffffff166323b872dd3330856040518463ffffffff1660e01b8152600401610dc3939291906115be565b6020604051808303816000875af1158015610de2573d6000803e3d6000fd5b505050506040513d601f19601f82011682018060405250810190610e06919061139b565b50600460009054906101000a900473ffffffffffffffffffffffffffffffffffffffff1673ffffffffffffffffffffffffffffffffffffffff166323b872dd3330846040518463ffffffff1660e01b8152600401610e66939291906115be565b6020604051808303816000875af1158015610e85573d6000803e3d6000fd5b505050506040513d601f19601f82011682018060405250810190610ea9919061139b565b5050505050565b600080838386610ec09190611488565b610eca91906114f9565b9050809150509392505050565b60066020528060005260406000206000915090505481565b600360009054906101000a900473ffffffffffffffffffffffffffffffffffffffff1681565b6000808203610f275760009050610f85565b60006002600184610f38919061158a565b610f4291906114f9565b905060008390505b80821015610f7f578190506002828386610f6491906114f9565b610f6e919061158a565b610f7891906114f9565b9150610f4a565b80925050505b919050565b600081831015610f9c57829050610fa0565b8190505b92915050565b600080fd5b6000819050919050565b610fbe81610fab565b8114610fc957600080fd5b50565b600081359050610fdb81610fb5565b92915050565b600073ffffffffffffffffffffffffffffffffffffffff82169050919050565b600061100c82610fe1565b9050919050565b61101c81611001565b811461102757600080fd5b50565b60008135905061103981611013565b92915050565b6000806040838503121561105657611055610fa6565b5b600061106485828601610fcc565b92505060206110758582860161102a565b9150509250929050565b6000806040838503121561109657611095610fa6565b5b60006110a485828601610fcc565b92505060206110b585828601610fcc565b9150509250929050565b6110c881610fab565b82525050565b60006040820190506110e360008301856110bf565b6110f060208301846110bf565b9392505050565b600060208201905061110c60008301846110bf565b92915050565b6000819050919050565b600061113761113261112d84610fe1565b611112565b610fe1565b9050919050565b60006111498261111c565b9050919050565b600061115b8261113e565b9050919050565b61116b81611150565b82525050565b60006020820190506111866000830184611162565b92915050565b600080604083850312156111a3576111a2610fa6565b5b60006111b18582860161102a565b92505060206111c28582860161102a565b9150509250929050565b6000602082840312156111e2576111e1610fa6565b5b60006111f084828501610fcc565b91505092915050565b600081519050919050565b600082825260208201905092915050565b60005b83811015611233578082015181840152602081019050611218565b60008484015250505050565b6000601f19601f8301169050919050565b600061125b826111f9565b6112658185611204565b9350611275818560208601611215565b61127e8161123f565b840191505092915050565b600060208201905081810360008301526112a38184611250565b905092915050565b6000602082840312156112c1576112c0610fa6565b5b60006112cf8482850161102a565b91505092915050565b6000806000606084860312156112f1576112f0610fa6565b5b60006112ff86828701610fcc565b935050602061131086828701610fcc565b925050604061132186828701610fcc565b9150509250925092565b61133481611001565b82525050565b600060408201905061134f600083018561132b565b61135c60208301846110bf565b9392505050565b60008115159050919050565b61137881611363565b811461138357600080fd5b50565b6000815190506113958161136f565b92915050565b6000602082840312156113b1576113b0610fa6565b5b60006113bf84828501611386565b91505092915050565b7f4e487b7100000000000000000000000000000000000000000000000000000000600052601160045260246000fd5b600061140282610fab565b915061140d83610fab565b9250828203905081811115611425576114246113c8565b5b92915050565b6000602082019050611440600083018461132b565b92915050565b60008151905061145581610fb5565b92915050565b60006020828403121561147157611470610fa6565b5b600061147f84828501611446565b91505092915050565b600061149382610fab565b915061149e83610fab565b92508282026114ac81610fab565b915082820484148315176114c3576114c26113c8565b5b5092915050565b7f4e487b7100000000000000000000000000000000000000000000000000000000600052601260045260246000fd5b600061150482610fab565b915061150f83610fab565b92508261151f5761151e6114ca565b5b828204905092915050565b7f4e487b7100000000000000000000000000000000000000000000000000000000600052602260045260246000fd5b6000600282049050600182168061157157607f821691505b6020821081036115845761158361152a565b5b50919050565b600061159582610fab565b91506115a083610fab565b92508282019050808211156115b8576115b76113c8565b5b92915050565b60006060820190506115d3600083018661132b565b6115e0602083018561132b565b6115ed60408301846110bf565b94935050505056fea2646970667358221220196a0d800ec22af3ec0901f638a71fbb3b4156da5d8ee0af8bd9d05a19e4ff1c64736f6c63430008180033307830334337353138333138444445396634423034443065434441624137613431434245393243623134",
  "linkReferences": {},
  "deployedLinkReferences": {}
}