{
  "_format": "hh-sol-artifact-1",
  "contractName": "Bridge",
  "sourceName": "contracts/bridge.sol",
  "abi": [
    {
      "inputs": [
        {
          "internalType": "address",
          "name": "_tokenAddress",
          "type": "address"
        }
      ],
      "stateMutability": "nonpayable",
      "type": "constructor"
    },
    {
      "anonymous": false,
      "inputs": [
        {
          "indexed": true,
          "internalType": "address",
          "name": "user",
          "type": "address"
        },
        {
          "indexed": false,
          "internalType": "uint256",
          "name": "amount",
          "type": "uint256"
        },
        {
          "indexed": false,
          "internalType": "uint256",
          "name": "destinationChainId",
          "type": "uint256"
        }
      ],
      "name": "TokensLocked",
      "type": "event"
    },
    {
      "inputs": [
        {
          "internalType": "uint256",
          "name": "amount",
          "type": "uint256"
        },
        {
          "internalType": "uint256",
          "name": "destinationChainId",
          "type": "uint256"
        }
      ],
      "name": "lockTokens",
      "outputs": [],
      "stateMutability": "nonpayable",
      "type": "function"
    },
    {
      "inputs": [
        {
          "internalType": "address",
          "name": "",
          "type": "address"
        }
      ],
      "name": "lockedTokens",
      "outputs": [
        {
          "internalType": "uint256",
          "name": "",
          "type": "uint256"
        }
      ],
      "stateMutability": "view",
      "type": "function"
    },
    {
      "inputs": [
        {
          "internalType": "address",
          "name": "user",
          "type": "address"
        },
        {
          "internalType": "uint256",
          "name": "amount",
          "type": "uint256"
        }
      ],
      "name": "releaseTokens",
      "outputs": [],
      "stateMutability": "nonpayable",
      "type": "function"
    },
    {
      "inputs": [],
      "name": "token",
      "outputs": [
        {
          "internalType": "contract IERC20",
          "name": "",
          "type": "address"
        }
      ],
      "stateMutability": "view",
      "type": "function"
    }
  ],
  "bytecode": "0x608060405234801561001057600080fd5b50604051610ab8380380610ab8833981810160405281019061003291906100db565b806000806101000a81548173ffffffffffffffffffffffffffffffffffffffff021916908373ffffffffffffffffffffffffffffffffffffffff16021790555050610108565b600080fd5b600073ffffffffffffffffffffffffffffffffffffffff82169050919050565b60006100a88261007d565b9050919050565b6100b88161009d565b81146100c357600080fd5b50565b6000815190506100d5816100af565b92915050565b6000602082840312156100f1576100f0610078565b5b60006100ff848285016100c6565b91505092915050565b6109a1806101176000396000f3fe608060405234801561001057600080fd5b506004361061004c5760003560e01c80635eb7413a1461005157806389158d8e14610081578063f40d71f11461009d578063fc0c546a146100b9575b600080fd5b61006b600480360381019061006691906104fb565b6100d7565b6040516100789190610541565b60405180910390f35b61009b60048036038101906100969190610588565b6100ef565b005b6100b760048036038101906100b291906105c8565b6102bb565b005b6100c1610474565b6040516100ce9190610667565b60405180910390f35b60016020528060005260406000206000915090505481565b60008211610132576040517f08c379a0000000000000000000000000000000000000000000000000000000008152600401610129906106df565b60405180910390fd5b60008054906101000a900473ffffffffffffffffffffffffffffffffffffffff1673ffffffffffffffffffffffffffffffffffffffff166323b872dd3330856040518463ffffffff1660e01b815260040161018f9392919061070e565b6020604051808303816000875af11580156101ae573d6000803e3d6000fd5b505050506040513d601f19601f820116820180604052508101906101d2919061077d565b610211576040517f08c379a0000000000000000000000000000000000000000000000000000000008152600401610208906107f6565b60405180910390fd5b81600160003373ffffffffffffffffffffffffffffffffffffffff1673ffffffffffffffffffffffffffffffffffffffff16815260200190815260200160002060008282546102609190610845565b925050819055503373ffffffffffffffffffffffffffffffffffffffff167fd741e738a23fd18a03a26522320d9fc6cac1fed483e215ea9150fbc2fc43385d83836040516102af929190610879565b60405180910390a25050565b80600160008473ffffffffffffffffffffffffffffffffffffffff1673ffffffffffffffffffffffffffffffffffffffff16815260200190815260200160002054101561033d576040517f08c379a0000000000000000000000000000000000000000000000000000000008152600401610334906108ee565b60405180910390fd5b80600160008473ffffffffffffffffffffffffffffffffffffffff1673ffffffffffffffffffffffffffffffffffffffff168152602001908152602001600020600082825461038c919061090e565b9250508190555060008054906101000a900473ffffffffffffffffffffffffffffffffffffffff1673ffffffffffffffffffffffffffffffffffffffff1663a9059cbb83836040518363ffffffff1660e01b81526004016103ee929190610942565b6020604051808303816000875af115801561040d573d6000803e3d6000fd5b505050506040513d601f19601f82011682018060405250810190610431919061077d565b610470576040517f08c379a0000000000000000000000000000000000000000000000000000000008152600401610467906107f6565b60405180910390fd5b5050565b60008054906101000a900473ffffffffffffffffffffffffffffffffffffffff1681565b600080fd5b600073ffffffffffffffffffffffffffffffffffffffff82169050919050565b60006104c88261049d565b9050919050565b6104d8816104bd565b81146104e357600080fd5b50565b6000813590506104f5816104cf565b92915050565b60006020828403121561051157610510610498565b5b600061051f848285016104e6565b91505092915050565b6000819050919050565b61053b81610528565b82525050565b60006020820190506105566000830184610532565b92915050565b61056581610528565b811461057057600080fd5b50565b6000813590506105828161055c565b92915050565b6000806040838503121561059f5761059e610498565b5b60006105ad85828601610573565b92505060206105be85828601610573565b9150509250929050565b600080604083850312156105df576105de610498565b5b60006105ed858286016104e6565b92505060206105fe85828601610573565b9150509250929050565b6000819050919050565b600061062d6106286106238461049d565b610608565b61049d565b9050919050565b600061063f82610612565b9050919050565b600061065182610634565b9050919050565b61066181610646565b82525050565b600060208201905061067c6000830184610658565b92915050565b600082825260208201905092915050565b7f416d6f756e74206d7573742062652067726561746572207468616e207a65726f600082015250565b60006106c9602083610682565b91506106d482610693565b602082019050919050565b600060208201905081810360008301526106f8816106bc565b9050919050565b610708816104bd565b82525050565b600060608201905061072360008301866106ff565b61073060208301856106ff565b61073d6040830184610532565b949350505050565b60008115159050919050565b61075a81610745565b811461076557600080fd5b50565b60008151905061077781610751565b92915050565b60006020828403121561079357610792610498565b5b60006107a184828501610768565b91505092915050565b7f5472616e73666572204661696c65640000000000000000000000000000000000600082015250565b60006107e0600f83610682565b91506107eb826107aa565b602082019050919050565b6000602082019050818103600083015261080f816107d3565b9050919050565b7f4e487b7100000000000000000000000000000000000000000000000000000000600052601160045260246000fd5b600061085082610528565b915061085b83610528565b925082820190508082111561087357610872610816565b5b92915050565b600060408201905061088e6000830185610532565b61089b6020830184610532565b9392505050565b7f496e7375666669656369656e74204c6f636b656420746f6b656e730000000000600082015250565b60006108d8601b83610682565b91506108e3826108a2565b602082019050919050565b60006020820190508181036000830152610907816108cb565b9050919050565b600061091982610528565b915061092483610528565b925082820390508181111561093c5761093b610816565b5b92915050565b600060408201905061095760008301856106ff565b6109646020830184610532565b939250505056fea26469706673582212203a268dde12dcc0c6e27ba46c5612523416265929fd91d0c58644facf6aef88db64736f6c63430008180033",
  "linkReferences": {},
  "deployedLinkReferences": {}
}